:1000000009C03BC03AC039C038C037C036C035C05F
:1000100035C033C011241FBECFE9CDBF10E0A0E62C
:10002000B0E0ECEEF1E002C005900D92A436B1070D
:10003000D9F720E0A4E6B0E001C01D92A536B207D2
:10004000E1F701D0D1C0379880E888B917BAA895F0
:1000500088E19DE00FB6F894A89581BD0FBE91BDD3
:1000600081B5806481BD789485B7877E806185BFC6
:1000700085B7806285BF8895FBCFC2CF1F920F9254
:100080000FB60F9211242F933F934F935F936F936B
:100090007F938F939F93AF93BF93EF93FF9326B379
:1000A00020718091600090916100A0916200B091F8
:1000B0006300AC01BD01405D5D4F6F4F7F4F411547
:1000C0003EE2530733E9630732E07307B8F4409325
:1000D00060005093610060936200709363008091B0
:1000E0006400211103C0882309F445C0813029F13F
:1000F00090F0823009F453C08FEF3BC0805D9B428B
:10010000A349B2408093600090936100A093620085
:10011000B0936300E4CF60916000709161008091C2
:1001200062009091630020E83EEE46E350E03AD052
:10013000211101C02FE081E01BC06091600070912F
:100140006100809162009091630020E63AEE40E009
:1001500050E028D0CA01B9012CE330E040E050E083
:1001600021D025E030E040E050E01CD02F5F82E05D
:1001700028BB8093640081B5806481BDFF91EF91BD
:10018000BF91AF919F918F917F916F915F914F91AF
:100190003F912F910F900FBE0F901F90189520E068
:1001A00080E0E6CFA1E21A2EAA1BBB1BFD010DC009
:1001B000AA1FBB1FEE1FFF1FA217B307E407F50717
:1001C00020F0A21BB30BE40BF50B661F771F881FF3
:1001D000991F1A9469F760957095809590959B0189
:0C01E000AC01BD01CF010895F894FFCFE1
:0401EC00A00C33022E
:00000001FF
