:100000000AC008C007C006C005C004C003C002C0C3
:1000100031C000C01895112410E0A0E6B0E0E0E483
:10002000F2E002C005900D92A436B107D9F720E0A6
:10003000A4E6B0E001C01D92A736B207E1F73798F9
:1000400080E888B98FE087BBA89588E19DE00FB66E
:10005000F894A89581BD0FBE91BD81B5806481BD26
:10006000789485B7877E806185BF85B7806285BFBC
:100070008895FBCF1F920F920FB60F9211242F93EA
:100080003F934F935F936F937F938F939F93AF9320
:10009000BF93EF93FF938091600090916100A091D6
:1000A0006200B0916300805D9D4FAF4FBF4F809362
:1000B000600090936100A0936200B0936300809110
:1000C000600090916100A0916200B0916300811581
:1000D0009E42A349B24098F08091600090916100E7
:1000E000A0916200B09163009E52A349B2408093F8
:1000F000600090936100A0936200B09363008091D0
:100100006600B49903C0882309F464C0813061F1AA
:1001100020F0823009F456C05AC08091600090915E
:100120006100A0916200B0916300892B8A2B8B2B18
:1001300019F4109265000FC0609160007091610029
:10014000809162009091630020E83EEE46E350E02B
:1001500055D02093650080916500811101C08CE02D
:100160009FE097BB91E031C0809160009091610069
:10017000A0916200B0916300892B8A2B8B2B19F41C
:10018000109264001BC060916000709161008091CA
:1001900062009091630020E63AEE40E050E02ED0FD
:1001A000CA01B9012CE330E040E050E027D025E05F
:1001B00030E040E050E022D0209364008091640061
:1001C00092E003C017BA80E090E088BB01C09FEFC7
:1001D0009093660081B5806481BDFF91EF91BF91DE
:1001E000AF919F918F917F916F915F914F913F91CF
:1001F0002F910F900FBE0F901F901895A1E21A2E0D
:10020000AA1BBB1BFD010DC0AA1FBB1FEE1FFF1FBA
:10021000A217B307E407F50720F0A21BB30BE40B0A
:10022000F50B661F771F881F991F1A9469F7609551
:100230007095809590959B01AC01BD01CF0108950B
:04024000005FF90161
:00000001FF
