:100000000AC008C007C006C005C004C003C002C0C3
:1000100031C000C01895112410E0A0E6B0E0ECE17A
:10002000F2E002C005900D92A436B107D9F720E0A6
:10003000A4E6B0E001C01D92A736B207E1F73798F9
:1000400080E888B98FE087BBA89588E19DE00FB66E
:10005000F894A89581BD0FBE91BD81B5806481BD26
:10006000789485B7877E806185BF85B7806285BFBC
:100070008895FBCF1F920F920FB60F9211242F93EA
:100080003F934F935F936F937F938F939F93AF9320
:10009000BF93EF93FF9326B32071809160009091FE
:1000A0006100A0916200B0916300AC01BD01425DAE
:1000B0005D4F6F4F7F4F41153EE2530733E96307B2
:1000C00032E0730748F440936000509361006093FE
:1000D0006200709363000CC0825D9B42A349B240F2
:1000E0008093600090936100A0936200B0936300DE
:1000F00080916600211103C0882309F459C0813022
:1001000011F120F0823009F447C04FC060916000C7
:10011000709161008091620090916300611571059A
:100120008105910519F41092650007C020E83EEEA4
:1001300046E350E051D02093650080916500811125
:100140002EC08FE02CC060916000709161008091A2
:10015000620090916300611571058105910519F4A4
:100160001092640013C020E63AEE40E050E034D034
:10017000CA01B9012CE330E040E050E02DD025E089
:1001800030E040E050E028D020936400809164008B
:10019000873338F48F5F06C080E090E004C091E0C0
:1001A00002C08FE092E088BB01C09FEF9093660091
:1001B00081B5806481BDFF91EF91BF91AF919F9117
:1001C0008F917F916F915F914F913F912F910F9000
:1001D0000FBE0F901F901895A1E21A2EAA1BBB1BF1
:1001E000FD010DC0AA1FBB1FEE1FFF1FA217B30703
:1001F000E407F50720F0A21BB30BE40BF50B661F19
:10020000771F881F991F1A9469F7609570958095DC
:0C02100090959B01AC01BD01CF01089549
:04021C00005FF90185
:00000001FF
